:100000000C9434000C943E000C943E000C943E0082
:100010000C943E000C943E000C943E000C943E0068
:100020000C943E000C943E000C943E000C943E0058
:100030000C943E000C943E000C943E000C943E0048
:100040000C943E000C943E000C943E000C943E0038
:100050000C943E000C943E000C943E000C943E0028
:100060000C943E000C943E0011241FBECFEFD8E04C
:10007000DEBFCDBF0E9448000C9456000C940000D7
:10008000259A2D98089595B180E2892785B908951C
:100090000E9440000E9443002FEF83ED90E3215027
:1000A00080409040E1F700C00000F4CFF894FFCF0B
:00000001FF
